{
  "transactions": [
    {
      "hash": "0x8379004db02b6748812892acb6e332ec7353bb38fb226ce56e0fceb7b12286e6",
      "transactionType": "CALL",
      "contractName": null,
      "contractAddress": "0x31f4ebbd96a4795312423b1df10dda5a9120bc78",
      "function": "approveBorrower(address)",
      "arguments": [
        "0x24C6d96509017DCe1b465cE38df6871eef74639b"
      ],
      "transaction": {
        "from": "0x24c6d96509017dce1b465ce38df6871eef74639b",
        "to": "0x31f4ebbd96a4795312423b1df10dda5a9120bc78",
        "gas": "0xff63",
        "value": "0x0",
        "input": "0x9a47192000000000000000000000000024c6d96509017dce1b465ce38df6871eef74639b",
        "nonce": "0x6",
        "chainId": "0x106a"
      },
      "additionalContracts": [],
      "isFixedGasLimit": false
    }
  ],
  "receipts": [
    {
      "status": "0x1",
      "cumulativeGasUsed": "0x16d1a",
      "logs": [
        {
          "address": "0x31f4ebbd96a4795312423b1df10dda5a9120bc78",
          "topics": [
            "0xedc2944c98c5f002ed2a9c43a72e74b11409dfbf0ed4161d88bccd6d3369e0f5",
            "0x00000000000000000000000024c6d96509017dce1b465ce38df6871eef74639b"
          ],
          "data": "0x",
          "blockHash": "0x692c443fe71efd78c1d309140ac3e08b2980c5c88f0b11898d9a9b9c4ae3c8a4",
          "blockNumber": "0x18769a3",
          "transactionHash": "0x8379004db02b6748812892acb6e332ec7353bb38fb226ce56e0fceb7b12286e6",
          "transactionIndex": "0x1",
          "logIndex": "0x0",
          "removed": false
        }
      ],
      "logsBloom": "0x00000000000000000000000000000000000000000000000000000000000000000000000000000000000000000000000000000000000000002000000000000000000000000000000200040000000000000000000000000000000000000000000000000000000000000000000000000000000000000000000000000000000000000000000000000000000000000000000000000200000000000000000000000000000800000000000000000001000000000000000000000000008002000000000000000000000000000000000000000000000000000000000000000000000000000000000000000000000000000000000000000000010000000000000000000000",
      "type": "0x0",
      "transactionHash": "0x8379004db02b6748812892acb6e332ec7353bb38fb226ce56e0fceb7b12286e6",
      "transactionIndex": "0x1",
      "blockHash": "0x692c443fe71efd78c1d309140ac3e08b2980c5c88f0b11898d9a9b9c4ae3c8a4",
      "blockNumber": "0x18769a3",
      "gasUsed": "0xb8e6",
      "effectiveGasPrice": "0xf433d",
      "from": "0x24c6d96509017dce1b465ce38df6871eef74639b",
      "to": "0x31f4ebbd96a4795312423b1df10dda5a9120bc78",
      "contractAddress": null,
      "l1BaseFeeScalar": "0x2af8",
      "l1BlobBaseFee": "0x3",
      "l1BlobBaseFeeScalar": "0x109618",
      "l1Fee": "0x8386f89c",
      "l1GasPrice": "0x7791f82",
      "l1GasUsed": "0x640"
    }
  ],
  "libraries": [],
  "pending": [],
  "returns": {},
  "timestamp": 1756616230432,
  "chain": 4202,
  "commit": "4124c48"
}